{
  "contractName": "ForwarderRegistry",
  "sourceName": "solc_0.8/ForwarderRegistry.sol",
  "abi": [
    {
      "inputs": [],
      "stateMutability": "nonpayable",
      "type": "constructor"
    },
    {
      "anonymous": false,
      "inputs": [
        {
          "indexed": true,
          "internalType": "address",
          "name": "signer",
          "type": "address"
        },
        {
          "indexed": true,
          "internalType": "address",
          "name": "forwarder",
          "type": "address"
        },
        {
          "indexed": false,
          "internalType": "bool",
          "name": "approved",
          "type": "bool"
        },
        {
          "indexed": false,
          "internalType": "uint256",
          "name": "nonce",
          "type": "uint256"
        }
      ],
      "name": "ForwarderApproved",
      "type": "event"
    },
    {
      "inputs": [],
      "name": "DOMAIN_SEPARATOR",
      "outputs": [
        {
          "internalType": "bytes32",
          "name": "",
          "type": "bytes32"
        }
      ],
      "stateMutability": "view",
      "type": "function"
    },
    {
      "inputs": [
        {
          "internalType": "bytes",
          "name": "signature",
          "type": "bytes"
        },
        {
          "internalType": "bool",
          "name": "isEIP1271Signature",
          "type": "bool"
        },
        {
          "internalType": "address",
          "name": "target",
          "type": "address"
        },
        {
          "internalType": "bytes",
          "name": "data",
          "type": "bytes"
        }
      ],
      "name": "approveAndForward",
      "outputs": [],
      "stateMutability": "payable",
      "type": "function"
    },
    {
      "inputs": [
        {
          "internalType": "address",
          "name": "forwarderToChangeApproval",
          "type": "address"
        },
        {
          "internalType": "bool",
          "name": "approved",
          "type": "bool"
        },
        {
          "internalType": "bytes",
          "name": "signature",
          "type": "bytes"
        },
        {
          "internalType": "bool",
          "name": "isEIP1271Signature",
          "type": "bool"
        }
      ],
      "name": "approveForwarder",
      "outputs": [],
      "stateMutability": "nonpayable",
      "type": "function"
    },
    {
      "inputs": [
        {
          "internalType": "bytes",
          "name": "signature",
          "type": "bytes"
        },
        {
          "internalType": "bool",
          "name": "isEIP1271Signature",
          "type": "bool"
        },
        {
          "internalType": "address",
          "name": "target",
          "type": "address"
        },
        {
          "internalType": "bytes",
          "name": "data",
          "type": "bytes"
        }
      ],
      "name": "checkApprovalAndForward",
      "outputs": [],
      "stateMutability": "payable",
      "type": "function"
    },
    {
      "inputs": [
        {
          "internalType": "address",
          "name": "target",
          "type": "address"
        },
        {
          "internalType": "bytes",
          "name": "data",
          "type": "bytes"
        }
      ],
      "name": "forward",
      "outputs": [],
      "stateMutability": "payable",
      "type": "function"
    },
    {
      "inputs": [
        {
          "internalType": "address",
          "name": "signer",
          "type": "address"
        },
        {
          "internalType": "address",
          "name": "forwarder",
          "type": "address"
        }
      ],
      "name": "getNonce",
      "outputs": [
        {
          "internalType": "uint256",
          "name": "",
          "type": "uint256"
        }
      ],
      "stateMutability": "view",
      "type": "function"
    },
    {
      "inputs": [
        {
          "internalType": "address",
          "name": "signer",
          "type": "address"
        },
        {
          "internalType": "address",
          "name": "forwarder",
          "type": "address"
        }
      ],
      "name": "isApprovedForwarder",
      "outputs": [
        {
          "internalType": "bool",
          "name": "",
          "type": "bool"
        }
      ],
      "stateMutability": "view",
      "type": "function"
    },
    {
      "inputs": [
        {
          "internalType": "address",
          "name": "",
          "type": "address"
        }
      ],
      "name": "isTrustedForwarder",
      "outputs": [
        {
          "internalType": "bool",
          "name": "",
          "type": "bool"
        }
      ],
      "stateMutability": "pure",
      "type": "function"
    }
  ],
  "bytecode": "0x60c060405234801561001057600080fd5b50466080818152604080517f8cad95687ba82c2ce50e74f7b754645e5117c3a5bec8151c0726d5857980a8666020808301919091527f06a520fda4ca688235391b02e357c6a65eb2a3bb40a69c0199f3f7f9cccee041828401526060820185905230828501528251808303909401845260a0909101909152815191012060a0525060805160a0516114996100b6600039600061062e0152600061058701526114996000f3fe60806040526004361061007b5760003560e01c80638929a8ca1161004e5780638929a8ca146101015780639438f7f314610121578063d828435d14610134578063d9e07567146101a657600080fd5b80633644e515146100805780633b7136e7146100a8578063572b6c05146100bd5780636fadcf72146100ee575b600080fd5b34801561008c57600080fd5b506100956101c6565b6040519081526020015b60405180910390f35b6100bb6100b63660046110f5565b6101d5565b005b3480156100c957600080fd5b506100de6100d8366004611189565b50600190565b604051901515815260200161009f565b6100bb6100fc3660046111a4565b6102ed565b34801561010d57600080fd5b506100de61011c3660046111f7565b610428565b6100bb61012f3660046110f5565b610486565b34801561014057600080fd5b5061009561014f3660046111f7565b73ffffffffffffffffffffffffffffffffffffffff9182166000908152602081815260408083209390941682529190915220547effffffffffffffffffffffffffffffffffffffffffffffffffffffffffffff1690565b3480156101b257600080fd5b506100bb6101c136600461122a565b610518565b60006101d0610582565b905090565b7fffffffffffffffffffffffffffffffffffffffffffffffffffffffffffffffec36013560601c6000818152602081815260408083203380855290835292819020548151601f8b0184900484028101840190925289825261027e92859285926001927effffffffffffffffffffffffffffffffffffffffffffffffffffffffffffff90911691908e908e90819084018382808284376000920191909152508e9250610654915050565b6102e2848484604051602001610296939291906112a0565b604080517fffffffffffffffffffffffffffffffffffffffffffffffffffffffffffffffe081840301815291905273ffffffffffffffffffffffffffffffffffffffff87169034610848565b505050505050505050565b367fffffffffffffffffffffffffffffffffffffffffffffffffffffffffffffffec013560601c6000818152602081815260408083203384529091529020547f0100000000000000000000000000000000000000000000000000000000000000900460ff166103bd576040517f08c379a000000000000000000000000000000000000000000000000000000000815260206004820152601860248201527f4e4f545f415554484f52495a45445f464f52574152444552000000000000000060448201526064015b60405180910390fd5b6104218383836040516020016103d5939291906112a0565b604080517fffffffffffffffffffffffffffffffffffffffffffffffffffffffffffffffe081840301815291905273ffffffffffffffffffffffffffffffffffffffff86169034610848565b5050505050565b73ffffffffffffffffffffffffffffffffffffffff828116600090815260208181526040808320938516835292905220547f0100000000000000000000000000000000000000000000000000000000000000900460ff165b92915050565b6000367fffffffffffffffffffffffffffffffffffffffffffffffffffffffffffffffec013560601c90506104f6813360018a8a8080601f0160208091040260200160405190810160405280939291908181526020018383808284376000920191909152508c9250610878915050565b61050e8383836040516020016103d5939291906112a0565b5050505050505050565b610421367fffffffffffffffffffffffffffffffffffffffffffffffffffffffffffffffec013560601c868686868080601f016020809104026020016040519081016040528093929190818152602001838380828437600092019190915250889250610878915050565b6000467f0000000000000000000000000000000000000000000000000000000000000000811461062c57604080517f8cad95687ba82c2ce50e74f7b754645e5117c3a5bec8151c0726d5857980a8666020808301919091527f06a520fda4ca688235391b02e357c6a65eb2a3bb40a69c0199f3f7f9cccee0418284015260608201849052306080808401919091528351808403909101815260a0909201909252805191012061064e565b7f00000000000000000000000000000000000000000000000000000000000000005b91505090565b6000610662878787876109db565b9050811561079457805160208201206040517f1626ba7e000000000000000000000000000000000000000000000000000000008082529173ffffffffffffffffffffffffffffffffffffffff8a1691631626ba7e916106c5918890600401611347565b602060405180830381865afa1580156106e2573d6000803e3d6000fd5b505050506040513d601f19601f820116820180604052508101906107069190611360565b7fffffffff00000000000000000000000000000000000000000000000000000000161461078f576040517f08c379a000000000000000000000000000000000000000000000000000000000815260206004820152601660248201527f5349474e41545552455f313237315f494e56414c49440000000000000000000060448201526064016103b4565b61083f565b805160208201206000906107a89085610ab9565b90508073ffffffffffffffffffffffffffffffffffffffff168873ffffffffffffffffffffffffffffffffffffffff161461050e576040517f08c379a000000000000000000000000000000000000000000000000000000000815260206004820152601660248201527f5349474e41545552455f57524f4e475f5349474e45520000000000000000000060448201526064016103b4565b50505050505050565b606061086e84848460405180606001604052806029815260200161143b60299139610add565b90505b9392505050565b73ffffffffffffffffffffffffffffffffffffffff80861660009081526020818152604080832093881683529290522080547effffffffffffffffffffffffffffffffffffffffffffffffffffffffffffff166108d9878787848888610654565b81547effffffffffffffffffffffffffffffffffffffffffffffffffffffffffffff167f01000000000000000000000000000000000000000000000000000000000000008615150217825561092f8160016113a2565b82547fff00000000000000000000000000000000000000000000000000000000000000167effffffffffffffffffffffffffffffffffffffffffffffffffffffffffffff919091161782556040805186151581526020810183905273ffffffffffffffffffffffffffffffffffffffff88811692908a16917f26eeb9a45fc0ed1a714977219563a1ae73a8da96bc19e08479dab98729dec65a910160405180910390a350505050505050565b60606109e5610582565b604080517f247e6797654d5fd2cb7b467724cabc2b14be5382309752af66c95151824a9583602082015273ffffffffffffffffffffffffffffffffffffffff808916928201929092529086166060820152841515608082015260a0810184905260c00160405160208183030381529060405280519060200120604051602001610aa09291907f190100000000000000000000000000000000000000000000000000000000000081526002810192909252602282015260420190565b6040516020818303038152906040529050949350505050565b6000806000610ac88585610c73565b91509150610ad581610cb8565b509392505050565b606082471015610b6f576040517f08c379a000000000000000000000000000000000000000000000000000000000815260206004820152602660248201527f416464726573733a20696e73756666696369656e742062616c616e636520666f60448201527f722063616c6c000000000000000000000000000000000000000000000000000060648201526084016103b4565b73ffffffffffffffffffffffffffffffffffffffff85163b610bed576040517f08c379a000000000000000000000000000000000000000000000000000000000815260206004820152601d60248201527f416464726573733a2063616c6c20746f206e6f6e2d636f6e747261637400000060448201526064016103b4565b6000808673ffffffffffffffffffffffffffffffffffffffff168587604051610c1691906113dc565b60006040518083038185875af1925050503d8060008114610c53576040519150601f19603f3d011682016040523d82523d6000602084013e610c58565b606091505b5091509150610c68828286610f0f565b979650505050505050565b6000808251604103610ca95760208301516040840151606085015160001a610c9d87828585610f62565b94509450505050610cb1565b506000905060025b9250929050565b6000816004811115610ccc57610ccc6113f8565b03610cd45750565b6001816004811115610ce857610ce86113f8565b03610d4f576040517f08c379a000000000000000000000000000000000000000000000000000000000815260206004820152601860248201527f45434453413a20696e76616c6964207369676e6174757265000000000000000060448201526064016103b4565b6002816004811115610d6357610d636113f8565b03610dca576040517f08c379a000000000000000000000000000000000000000000000000000000000815260206004820152601f60248201527f45434453413a20696e76616c6964207369676e6174757265206c656e6774680060448201526064016103b4565b6003816004811115610dde57610dde6113f8565b03610e6b576040517f08c379a000000000000000000000000000000000000000000000000000000000815260206004820152602260248201527f45434453413a20696e76616c6964207369676e6174757265202773272076616c60448201527f756500000000000000000000000000000000000000000000000000000000000060648201526084016103b4565b6004816004811115610e7f57610e7f6113f8565b03610f0c576040517f08c379a000000000000000000000000000000000000000000000000000000000815260206004820152602260248201527f45434453413a20696e76616c6964207369676e6174757265202776272076616c60448201527f756500000000000000000000000000000000000000000000000000000000000060648201526084016103b4565b50565b60608315610f1e575081610871565b825115610f2e5782518084602001fd5b816040517f08c379a00000000000000000000000000000000000000000000000000000000081526004016103b49190611427565b6000807f7fffffffffffffffffffffffffffffff5d576e7357a4501ddfe92f46681b20a0831115610f995750600090506003611071565b8460ff16601b14158015610fb157508460ff16601c14155b15610fc25750600090506004611071565b6040805160008082526020820180845289905260ff881692820192909252606081018690526080810185905260019060a0016020604051602081039080840390855afa158015611016573d6000803e3d6000fd5b50506040517fffffffffffffffffffffffffffffffffffffffffffffffffffffffffffffffe0015191505073ffffffffffffffffffffffffffffffffffffffff811661106a57600060019250925050611071565b9150600090505b94509492505050565b60008083601f84011261108c57600080fd5b50813567ffffffffffffffff8111156110a457600080fd5b602083019150836020828501011115610cb157600080fd5b803580151581146110cc57600080fd5b919050565b803573ffffffffffffffffffffffffffffffffffffffff811681146110cc57600080fd5b6000806000806000806080878903121561110e57600080fd5b863567ffffffffffffffff8082111561112657600080fd5b6111328a838b0161107a565b909850965086915061114660208a016110bc565b955061115460408a016110d1565b9450606089013591508082111561116a57600080fd5b5061117789828a0161107a565b979a9699509497509295939492505050565b60006020828403121561119b57600080fd5b610871826110d1565b6000806000604084860312156111b957600080fd5b6111c2846110d1565b9250602084013567ffffffffffffffff8111156111de57600080fd5b6111ea8682870161107a565b9497909650939450505050565b6000806040838503121561120a57600080fd5b611213836110d1565b9150611221602084016110d1565b90509250929050565b60008060008060006080868803121561124257600080fd5b61124b866110d1565b9450611259602087016110bc565b9350604086013567ffffffffffffffff81111561127557600080fd5b6112818882890161107a565b90945092506112949050606087016110bc565b90509295509295909350565b8284823760609190911b7fffffffffffffffffffffffffffffffffffffffff000000000000000000000000169101908152601401919050565b60005b838110156112f45781810151838201526020016112dc565b50506000910152565b600081518084526113158160208601602086016112d9565b601f017fffffffffffffffffffffffffffffffffffffffffffffffffffffffffffffffe0169290920160200192915050565b82815260406020820152600061086e60408301846112fd565b60006020828403121561137257600080fd5b81517fffffffff000000000000000000000000000000000000000000000000000000008116811461087157600080fd5b80820180821115610480577f4e487b7100000000000000000000000000000000000000000000000000000000600052601160045260246000fd5b600082516113ee8184602087016112d9565b9190910192915050565b7f4e487b7100000000000000000000000000000000000000000000000000000000600052602160045260246000fd5b60208152600061087160208301846112fd56fe416464726573733a206c6f772d6c6576656c2063616c6c20776974682076616c7565206661696c6564a2646970667358221220a34d1c47b4de79fcc7581589f24d70beb932e094b702f5c27ee04fca4a9b2a2964736f6c63430008100033",
  "linkReferences": {},
  "deployedLinkReferences": {},
  "devdoc": {
    "kind": "dev",
    "methods": {
      "DOMAIN_SEPARATOR()": {
        "details": "Return the DOMAIN_SEPARATOR."
      },
      "approveAndForward(bytes,bool,address,bytes)": {
        "params": {
          "data": "the content of the call (the signer address will be appended to it).",
          "isEIP1271Signature": "true if the signer is a contract that require authorization via EIP-1271",
          "signature": "signature by signer for approving forwarder.",
          "target": "destination of the call (that will receive the meta transaction)."
        }
      },
      "approveForwarder(address,bool,bytes,bool)": {
        "params": {
          "approved": "whether to approve or disapprove (if previously approved) the forwarder.",
          "forwarderToChangeApproval": "address of the forwarder to approve",
          "isEIP1271Signature": "true if the signer is a contract that require authorization via EIP-1271",
          "signature": "signature by signer for approving forwarder."
        }
      },
      "checkApprovalAndForward(bytes,bool,address,bytes)": {
        "params": {
          "data": "the content of the call (the signer address will be appended to it).",
          "isEIP1271Signature": "true if the signer is a contract that require authorization via EIP-1271",
          "signature": "signature by signer for approving forwarder.",
          "target": "destination of the call (that will receive the meta transaction)."
        }
      },
      "forward(address,bytes)": {
        "params": {
          "data": "the content of the call (the signer address will be appended to it).",
          "target": "destination of the call (that will receive the meta transaction)."
        }
      },
      "getNonce(address,address)": {
        "params": {
          "forwarder": "meta transaction forwarder contract address.",
          "signer": "signer who authorize/dauthorize forwarders"
        }
      },
      "isApprovedForwarder(address,address)": {
        "params": {
          "forwarder": "meta transaction forwarder contract address.",
          "signer": "signer who authorized or not the forwarder."
        }
      }
    },
    "version": 1
  },
  "evm": {
    "bytecode": {
      "linkReferences": {},
      "opcodes": "PUSH1 0xC0 PUSH1 0x40 MSTORE CALLVALUE DUP1 ISZERO PUSH2 0x10 JUMPI PUSH1 0x0 DUP1 REVERT JUMPDEST POP CHAINID PUSH1 0x80 DUP2 DUP2 MSTORE PUSH1 0x40 DUP1 MLOAD PUSH32 0x8CAD95687BA82C2CE50E74F7B754645E5117C3A5BEC8151C0726D5857980A866 PUSH1 0x20 DUP1 DUP4 ADD SWAP2 SWAP1 SWAP2 MSTORE PUSH32 0x6A520FDA4CA688235391B02E357C6A65EB2A3BB40A69C0199F3F7F9CCCEE041 DUP3 DUP5 ADD MSTORE PUSH1 0x60 DUP3 ADD DUP6 SWAP1 MSTORE ADDRESS DUP3 DUP6 ADD MSTORE DUP3 MLOAD DUP1 DUP4 SUB SWAP1 SWAP5 ADD DUP5 MSTORE PUSH1 0xA0 SWAP1 SWAP2 ADD SWAP1 SWAP2 MSTORE DUP2 MLOAD SWAP2 ADD KECCAK256 PUSH1 0xA0 MSTORE POP PUSH1 0x80 MLOAD PUSH1 0xA0 MLOAD PUSH2 0x1499 PUSH2 0xB6 PUSH1 0x0 CODECOPY PUSH1 0x0 PUSH2 0x62E ADD MSTORE PUSH1 0x0 PUSH2 0x587 ADD MSTORE PUSH2 0x1499 PUSH1 0x0 RETURN INVALID PUSH1 0x80 PUSH1 0x40 MSTORE PUSH1 0x4 CALLDATASIZE LT PUSH2 0x7B JUMPI PUSH1 0x0 CALLDATALOAD PUSH1 0xE0 SHR DUP1 PUSH4 0x8929A8CA GT PUSH2 0x4E JUMPI DUP1 PUSH4 0x8929A8CA EQ PUSH2 0x101 JUMPI DUP1 PUSH4 0x9438F7F3 EQ PUSH2 0x121 JUMPI DUP1 PUSH4 0xD828435D EQ PUSH2 0x134 JUMPI DUP1 PUSH4 0xD9E07567 EQ PUSH2 0x1A6 JUMPI PUSH1 0x0 DUP1 REVERT JUMPDEST DUP1 PUSH4 0x3644E515 EQ PUSH2 0x80 JUMPI DUP1 PUSH4 0x3B7136E7 EQ PUSH2 0xA8 JUMPI DUP1 PUSH4 0x572B6C05 EQ PUSH2 0xBD JUMPI DUP1 PUSH4 0x6FADCF72 EQ PUSH2 0xEE JUMPI JUMPDEST PUSH1 0x0 DUP1 REVERT JUMPDEST CALLVALUE DUP1 ISZERO PUSH2 0x8C JUMPI PUSH1 0x0 DUP1 REVERT JUMPDEST POP PUSH2 0x95 PUSH2 0x1C6 JUMP JUMPDEST PUSH1 0x40 MLOAD SWAP1 DUP2 MSTORE PUSH1 0x20 ADD JUMPDEST PUSH1 0x40 MLOAD DUP1 SWAP2 SUB SWAP1 RETURN JUMPDEST PUSH2 0xBB PUSH2 0xB6 CALLDATASIZE PUSH1 0x4 PUSH2 0x10F5 JUMP JUMPDEST PUSH2 0x1D5 JUMP JUMPDEST STOP JUMPDEST CALLVALUE DUP1 ISZERO PUSH2 0xC9 JUMPI PUSH1 0x0 DUP1 REVERT JUMPDEST POP PUSH2 0xDE PUSH2 0xD8 CALLDATASIZE PUSH1 0x4 PUSH2 0x1189 JUMP JUMPDEST POP PUSH1 0x1 SWAP1 JUMP JUMPDEST PUSH1 0x40 MLOAD SWAP1 ISZERO ISZERO DUP2 MSTORE PUSH1 0x20 ADD PUSH2 0x9F JUMP JUMPDEST PUSH2 0xBB PUSH2 0xFC CALLDATASIZE PUSH1 0x4 PUSH2 0x11A4 JUMP JUMPDEST PUSH2 0x2ED JUMP JUMPDEST CALLVALUE DUP1 ISZERO PUSH2 0x10D JUMPI PUSH1 0x0 DUP1 REVERT JUMPDEST POP PUSH2 0xDE PUSH2 0x11C CALLDATASIZE PUSH1 0x4 PUSH2 0x11F7 JUMP JUMPDEST PUSH2 0x428 JUMP JUMPDEST PUSH2 0xBB PUSH2 0x12F CALLDATASIZE PUSH1 0x4 PUSH2 0x10F5 JUMP JUMPDEST PUSH2 0x486 JUMP JUMPDEST CALLVALUE DUP1 ISZERO PUSH2 0x140 JUMPI PUSH1 0x0 DUP1 REVERT JUMPDEST POP PUSH2 0x95 PUSH2 0x14F CALLDATASIZE PUSH1 0x4 PUSH2 0x11F7 JUMP JUMPDEST PUSH20 0xFFFFFFFFFFFFFFFFFFFFFFFFFFFFFFFFFFFFFFFF SWAP2 DUP3 AND PUSH1 0x0 SWAP1 DUP2 MSTORE PUSH1 0x20 DUP2 DUP2 MSTORE PUSH1 0x40 DUP1 DUP4 KECCAK256 SWAP4 SWAP1 SWAP5 AND DUP3 MSTORE SWAP2 SWAP1 SWAP2 MSTORE KECCAK256 SLOAD PUSH31 0xFFFFFFFFFFFFFFFFFFFFFFFFFFFFFFFFFFFFFFFFFFFFFFFFFFFFFFFFFFFFFF AND SWAP1 JUMP JUMPDEST CALLVALUE DUP1 ISZERO PUSH2 0x1B2 JUMPI PUSH1 0x0 DUP1 REVERT JUMPDEST POP PUSH2 0xBB PUSH2 0x1C1 CALLDATASIZE PUSH1 0x4 PUSH2 0x122A JUMP JUMPDEST PUSH2 0x518 JUMP JUMPDEST PUSH1 0x0 PUSH2 0x1D0 PUSH2 0x582 JUMP JUMPDEST SWAP1 POP SWAP1 JUMP JUMPDEST PUSH32 0xFFFFFFFFFFFFFFFFFFFFFFFFFFFFFFFFFFFFFFFFFFFFFFFFFFFFFFFFFFFFFFEC CALLDATASIZE ADD CALLDATALOAD PUSH1 0x60 SHR PUSH1 0x0 DUP2 DUP2 MSTORE PUSH1 0x20 DUP2 DUP2 MSTORE PUSH1 0x40 DUP1 DUP4 KECCAK256 CALLER DUP1 DUP6 MSTORE SWAP1 DUP4 MSTORE SWAP3 DUP2 SWAP1 KECCAK256 SLOAD DUP2 MLOAD PUSH1 0x1F DUP12 ADD DUP5 SWAP1 DIV DUP5 MUL DUP2 ADD DUP5 ADD SWAP1 SWAP3 MSTORE DUP10 DUP3 MSTORE PUSH2 0x27E SWAP3 DUP6 SWAP3 DUP6 SWAP3 PUSH1 0x1 SWAP3 PUSH31 0xFFFFFFFFFFFFFFFFFFFFFFFFFFFFFFFFFFFFFFFFFFFFFFFFFFFFFFFFFFFFFF SWAP1 SWAP2 AND SWAP2 SWAP1 DUP15 SWAP1 DUP15 SWAP1 DUP2 SWAP1 DUP5 ADD DUP4 DUP3 DUP1 DUP3 DUP5 CALLDATACOPY PUSH1 0x0 SWAP3 ADD SWAP2 SWAP1 SWAP2 MSTORE POP DUP15 SWAP3 POP PUSH2 0x654 SWAP2 POP POP JUMP JUMPDEST PUSH2 0x2E2 DUP5 DUP5 DUP5 PUSH1 0x40 MLOAD PUSH1 0x20 ADD PUSH2 0x296 SWAP4 SWAP3 SWAP2 SWAP1 PUSH2 0x12A0 JUMP JUMPDEST PUSH1 0x40 DUP1 MLOAD PUSH32 0xFFFFFFFFFFFFFFFFFFFFFFFFFFFFFFFFFFFFFFFFFFFFFFFFFFFFFFFFFFFFFFE0 DUP2 DUP5 SUB ADD DUP2 MSTORE SWAP2 SWAP1 MSTORE PUSH20 0xFFFFFFFFFFFFFFFFFFFFFFFFFFFFFFFFFFFFFFFF DUP8 AND SWAP1 CALLVALUE PUSH2 0x848 JUMP JUMPDEST POP POP POP POP POP POP POP POP POP JUMP JUMPDEST CALLDATASIZE PUSH32 0xFFFFFFFFFFFFFFFFFFFFFFFFFFFFFFFFFFFFFFFFFFFFFFFFFFFFFFFFFFFFFFEC ADD CALLDATALOAD PUSH1 0x60 SHR PUSH1 0x0 DUP2 DUP2 MSTORE PUSH1 0x20 DUP2 DUP2 MSTORE PUSH1 0x40 DUP1 DUP4 KECCAK256 CALLER DUP5 MSTORE SWAP1 SWAP2 MSTORE SWAP1 KECCAK256 SLOAD PUSH32 0x100000000000000000000000000000000000000000000000000000000000000 SWAP1 DIV PUSH1 0xFF AND PUSH2 0x3BD JUMPI PUSH1 0x40 MLOAD PUSH32 0x8C379A000000000000000000000000000000000000000000000000000000000 DUP2 MSTORE PUSH1 0x20 PUSH1 0x4 DUP3 ADD MSTORE PUSH1 0x18 PUSH1 0x24 DUP3 ADD MSTORE PUSH32 0x4E4F545F415554484F52495A45445F464F525741524445520000000000000000 PUSH1 0x44 DUP3 ADD MSTORE PUSH1 0x64 ADD JUMPDEST PUSH1 0x40 MLOAD DUP1 SWAP2 SUB SWAP1 REVERT JUMPDEST PUSH2 0x421 DUP4 DUP4 DUP4 PUSH1 0x40 MLOAD PUSH1 0x20 ADD PUSH2 0x3D5 SWAP4 SWAP3 SWAP2 SWAP1 PUSH2 0x12A0 JUMP JUMPDEST PUSH1 0x40 DUP1 MLOAD PUSH32 0xFFFFFFFFFFFFFFFFFFFFFFFFFFFFFFFFFFFFFFFFFFFFFFFFFFFFFFFFFFFFFFE0 DUP2 DUP5 SUB ADD DUP2 MSTORE SWAP2 SWAP1 MSTORE PUSH20 0xFFFFFFFFFFFFFFFFFFFFFFFFFFFFFFFFFFFFFFFF DUP7 AND SWAP1 CALLVALUE PUSH2 0x848 JUMP JUMPDEST POP POP POP POP POP JUMP JUMPDEST PUSH20 0xFFFFFFFFFFFFFFFFFFFFFFFFFFFFFFFFFFFFFFFF DUP3 DUP2 AND PUSH1 0x0 SWAP1 DUP2 MSTORE PUSH1 0x20 DUP2 DUP2 MSTORE PUSH1 0x40 DUP1 DUP4 KECCAK256 SWAP4 DUP6 AND DUP4 MSTORE SWAP3 SWAP1 MSTORE KECCAK256 SLOAD PUSH32 0x100000000000000000000000000000000000000000000000000000000000000 SWAP1 DIV PUSH1 0xFF AND JUMPDEST SWAP3 SWAP2 POP POP JUMP JUMPDEST PUSH1 0x0 CALLDATASIZE PUSH32 0xFFFFFFFFFFFFFFFFFFFFFFFFFFFFFFFFFFFFFFFFFFFFFFFFFFFFFFFFFFFFFFEC ADD CALLDATALOAD PUSH1 0x60 SHR SWAP1 POP PUSH2 0x4F6 DUP2 CALLER PUSH1 0x1 DUP11 DUP11 DUP1 DUP1 PUSH1 0x1F ADD PUSH1 0x20 DUP1 SWAP2 DIV MUL PUSH1 0x20 ADD PUSH1 0x40 MLOAD SWAP1 DUP2 ADD PUSH1 0x40 MSTORE DUP1 SWAP4 SWAP3 SWAP2 SWAP1 DUP2 DUP2 MSTORE PUSH1 0x20 ADD DUP4 DUP4 DUP1 DUP3 DUP5 CALLDATACOPY PUSH1 0x0 SWAP3 ADD SWAP2 SWAP1 SWAP2 MSTORE POP DUP13 SWAP3 POP PUSH2 0x878 SWAP2 POP POP JUMP JUMPDEST PUSH2 0x50E DUP4 DUP4 DUP4 PUSH1 0x40 MLOAD PUSH1 0x20 ADD PUSH2 0x3D5 SWAP4 SWAP3 SWAP2 SWAP1 PUSH2 0x12A0 JUMP JUMPDEST POP POP POP POP POP POP POP POP JUMP JUMPDEST PUSH2 0x421 CALLDATASIZE PUSH32 0xFFFFFFFFFFFFFFFFFFFFFFFFFFFFFFFFFFFFFFFFFFFFFFFFFFFFFFFFFFFFFFEC ADD CALLDATALOAD PUSH1 0x60 SHR DUP7 DUP7 DUP7 DUP7 DUP1 DUP1 PUSH1 0x1F ADD PUSH1 0x20 DUP1 SWAP2 DIV MUL PUSH1 0x20 ADD PUSH1 0x40 MLOAD SWAP1 DUP2 ADD PUSH1 0x40 MSTORE DUP1 SWAP4 SWAP3 SWAP2 SWAP1 DUP2 DUP2 MSTORE PUSH1 0x20 ADD DUP4 DUP4 DUP1 DUP3 DUP5 CALLDATACOPY PUSH1 0x0 SWAP3 ADD SWAP2 SWAP1 SWAP2 MSTORE POP DUP9 SWAP3 POP PUSH2 0x878 SWAP2 POP POP JUMP JUMPDEST PUSH1 0x0 CHAINID PUSH32 0x0 DUP2 EQ PUSH2 0x62C JUMPI PUSH1 0x40 DUP1 MLOAD PUSH32 0x8CAD95687BA82C2CE50E74F7B754645E5117C3A5BEC8151C0726D5857980A866 PUSH1 0x20 DUP1 DUP4 ADD SWAP2 SWAP1 SWAP2 MSTORE PUSH32 0x6A520FDA4CA688235391B02E357C6A65EB2A3BB40A69C0199F3F7F9CCCEE041 DUP3 DUP5 ADD MSTORE PUSH1 0x60 DUP3 ADD DUP5 SWAP1 MSTORE ADDRESS PUSH1 0x80 DUP1 DUP5 ADD SWAP2 SWAP1 SWAP2 MSTORE DUP4 MLOAD DUP1 DUP5 SUB SWAP1 SWAP2 ADD DUP2 MSTORE PUSH1 0xA0 SWAP1 SWAP3 ADD SWAP1 SWAP3 MSTORE DUP1 MLOAD SWAP2 ADD KECCAK256 PUSH2 0x64E JUMP JUMPDEST PUSH32 0x0 JUMPDEST SWAP2 POP POP SWAP1 JUMP JUMPDEST PUSH1 0x0 PUSH2 0x662 DUP8 DUP8 DUP8 DUP8 PUSH2 0x9DB JUMP JUMPDEST SWAP1 POP DUP2 ISZERO PUSH2 0x794 JUMPI DUP1 MLOAD PUSH1 0x20 DUP3 ADD KECCAK256 PUSH1 0x40 MLOAD PUSH32 0x1626BA7E00000000000000000000000000000000000000000000000000000000 DUP1 DUP3 MSTORE SWAP2 PUSH20 0xFFFFFFFFFFFFFFFFFFFFFFFFFFFFFFFFFFFFFFFF DUP11 AND SWAP2 PUSH4 0x1626BA7E SWAP2 PUSH2 0x6C5 SWAP2 DUP9 SWAP1 PUSH1 0x4 ADD PUSH2 0x1347 JUMP JUMPDEST PUSH1 0x20 PUSH1 0x40 MLOAD DUP1 DUP4 SUB DUP2 DUP7 GAS STATICCALL ISZERO DUP1 ISZERO PUSH2 0x6E2 JUMPI RETURNDATASIZE PUSH1 0x0 DUP1 RETURNDATACOPY RETURNDATASIZE PUSH1 0x0 REVERT JUMPDEST POP POP POP POP PUSH1 0x40 MLOAD RETURNDATASIZE PUSH1 0x1F NOT PUSH1 0x1F DUP3 ADD AND DUP3 ADD DUP1 PUSH1 0x40 MSTORE POP DUP2 ADD SWAP1 PUSH2 0x706 SWAP2 SWAP1 PUSH2 0x1360 JUMP JUMPDEST PUSH32 0xFFFFFFFF00000000000000000000000000000000000000000000000000000000 AND EQ PUSH2 0x78F JUMPI PUSH1 0x40 MLOAD PUSH32 0x8C379A000000000000000000000000000000000000000000000000000000000 DUP2 MSTORE PUSH1 0x20 PUSH1 0x4 DUP3 ADD MSTORE PUSH1 0x16 PUSH1 0x24 DUP3 ADD MSTORE PUSH32 0x5349474E41545552455F313237315F494E56414C494400000000000000000000 PUSH1 0x44 DUP3 ADD MSTORE PUSH1 0x64 ADD PUSH2 0x3B4 JUMP JUMPDEST PUSH2 0x83F JUMP JUMPDEST DUP1 MLOAD PUSH1 0x20 DUP3 ADD KECCAK256 PUSH1 0x0 SWAP1 PUSH2 0x7A8 SWAP1 DUP6 PUSH2 0xAB9 JUMP JUMPDEST SWAP1 POP DUP1 PUSH20 0xFFFFFFFFFFFFFFFFFFFFFFFFFFFFFFFFFFFFFFFF AND DUP9 PUSH20 0xFFFFFFFFFFFFFFFFFFFFFFFFFFFFFFFFFFFFFFFF AND EQ PUSH2 0x50E JUMPI PUSH1 0x40 MLOAD PUSH32 0x8C379A000000000000000000000000000000000000000000000000000000000 DUP2 MSTORE PUSH1 0x20 PUSH1 0x4 DUP3 ADD MSTORE PUSH1 0x16 PUSH1 0x24 DUP3 ADD MSTORE PUSH32 0x5349474E41545552455F57524F4E475F5349474E455200000000000000000000 PUSH1 0x44 DUP3 ADD MSTORE PUSH1 0x64 ADD PUSH2 0x3B4 JUMP JUMPDEST POP POP POP POP POP POP POP JUMP JUMPDEST PUSH1 0x60 PUSH2 0x86E DUP5 DUP5 DUP5 PUSH1 0x40 MLOAD DUP1 PUSH1 0x60 ADD PUSH1 0x40 MSTORE DUP1 PUSH1 0x29 DUP2 MSTORE PUSH1 0x20 ADD PUSH2 0x143B PUSH1 0x29 SWAP2 CODECOPY PUSH2 0xADD JUMP JUMPDEST SWAP1 POP JUMPDEST SWAP4 SWAP3 POP POP POP JUMP JUMPDEST PUSH20 0xFFFFFFFFFFFFFFFFFFFFFFFFFFFFFFFFFFFFFFFF DUP1 DUP7 AND PUSH1 0x0 SWAP1 DUP2 MSTORE PUSH1 0x20 DUP2 DUP2 MSTORE PUSH1 0x40 DUP1 DUP4 KECCAK256 SWAP4 DUP9 AND DUP4 MSTORE SWAP3 SWAP1 MSTORE KECCAK256 DUP1 SLOAD PUSH31 0xFFFFFFFFFFFFFFFFFFFFFFFFFFFFFFFFFFFFFFFFFFFFFFFFFFFFFFFFFFFFFF AND PUSH2 0x8D9 DUP8 DUP8 DUP8 DUP5 DUP9 DUP9 PUSH2 0x654 JUMP JUMPDEST DUP2 SLOAD PUSH31 0xFFFFFFFFFFFFFFFFFFFFFFFFFFFFFFFFFFFFFFFFFFFFFFFFFFFFFFFFFFFFFF AND PUSH32 0x100000000000000000000000000000000000000000000000000000000000000 DUP7 ISZERO ISZERO MUL OR DUP3 SSTORE PUSH2 0x92F DUP2 PUSH1 0x1 PUSH2 0x13A2 JUMP JUMPDEST DUP3 SLOAD PUSH32 0xFF00000000000000000000000000000000000000000000000000000000000000 AND PUSH31 0xFFFFFFFFFFFFFFFFFFFFFFFFFFFFFFFFFFFFFFFFFFFFFFFFFFFFFFFFFFFFFF SWAP2 SWAP1 SWAP2 AND OR DUP3 SSTORE PUSH1 0x40 DUP1 MLOAD DUP7 ISZERO ISZERO DUP2 MSTORE PUSH1 0x20 DUP2 ADD DUP4 SWAP1 MSTORE PUSH20 0xFFFFFFFFFFFFFFFFFFFFFFFFFFFFFFFFFFFFFFFF DUP9 DUP2 AND SWAP3 SWAP1 DUP11 AND SWAP2 PUSH32 0x26EEB9A45FC0ED1A714977219563A1AE73A8DA96BC19E08479DAB98729DEC65A SWAP2 ADD PUSH1 0x40 MLOAD DUP1 SWAP2 SUB SWAP1 LOG3 POP POP POP POP POP POP POP JUMP JUMPDEST PUSH1 0x60 PUSH2 0x9E5 PUSH2 0x582 JUMP JUMPDEST PUSH1 0x40 DUP1 MLOAD PUSH32 0x247E6797654D5FD2CB7B467724CABC2B14BE5382309752AF66C95151824A9583 PUSH1 0x20 DUP3 ADD MSTORE PUSH20 0xFFFFFFFFFFFFFFFFFFFFFFFFFFFFFFFFFFFFFFFF DUP1 DUP10 AND SWAP3 DUP3 ADD SWAP3 SWAP1 SWAP3 MSTORE SWAP1 DUP7 AND PUSH1 0x60 DUP3 ADD MSTORE DUP5 ISZERO ISZERO PUSH1 0x80 DUP3 ADD MSTORE PUSH1 0xA0 DUP2 ADD DUP5 SWAP1 MSTORE PUSH1 0xC0 ADD PUSH1 0x40 MLOAD PUSH1 0x20 DUP2 DUP4 SUB SUB DUP2 MSTORE SWAP1 PUSH1 0x40 MSTORE DUP1 MLOAD SWAP1 PUSH1 0x20 ADD KECCAK256 PUSH1 0x40 MLOAD PUSH1 0x20 ADD PUSH2 0xAA0 SWAP3 SWAP2 SWAP1 PUSH32 0x1901000000000000000000000000000000000000000000000000000000000000 DUP2 MSTORE PUSH1 0x2 DUP2 ADD SWAP3 SWAP1 SWAP3 MSTORE PUSH1 0x22 DUP3 ADD MSTORE PUSH1 0x42 ADD SWAP1 JUMP JUMPDEST PUSH1 0x40 MLOAD PUSH1 0x20 DUP2 DUP4 SUB SUB DUP2 MSTORE SWAP1 PUSH1 0x40 MSTORE SWAP1 POP SWAP5 SWAP4 POP POP POP POP JUMP JUMPDEST PUSH1 0x0 DUP1 PUSH1 0x0 PUSH2 0xAC8 DUP6 DUP6 PUSH2 0xC73 JUMP JUMPDEST SWAP2 POP SWAP2 POP PUSH2 0xAD5 DUP2 PUSH2 0xCB8 JUMP JUMPDEST POP SWAP4 SWAP3 POP POP POP JUMP JUMPDEST PUSH1 0x60 DUP3 SELFBALANCE LT ISZERO PUSH2 0xB6F JUMPI PUSH1 0x40 MLOAD PUSH32 0x8C379A000000000000000000000000000000000000000000000000000000000 DUP2 MSTORE PUSH1 0x20 PUSH1 0x4 DUP3 ADD MSTORE PUSH1 0x26 PUSH1 0x24 DUP3 ADD MSTORE PUSH32 0x416464726573733A20696E73756666696369656E742062616C616E636520666F PUSH1 0x44 DUP3 ADD MSTORE PUSH32 0x722063616C6C0000000000000000000000000000000000000000000000000000 PUSH1 0x64 DUP3 ADD MSTORE PUSH1 0x84 ADD PUSH2 0x3B4 JUMP JUMPDEST PUSH20 0xFFFFFFFFFFFFFFFFFFFFFFFFFFFFFFFFFFFFFFFF DUP6 AND EXTCODESIZE PUSH2 0xBED JUMPI PUSH1 0x40 MLOAD PUSH32 0x8C379A000000000000000000000000000000000000000000000000000000000 DUP2 MSTORE PUSH1 0x20 PUSH1 0x4 DUP3 ADD MSTORE PUSH1 0x1D PUSH1 0x24 DUP3 ADD MSTORE PUSH32 0x416464726573733A2063616C6C20746F206E6F6E2D636F6E7472616374000000 PUSH1 0x44 DUP3 ADD MSTORE PUSH1 0x64 ADD PUSH2 0x3B4 JUMP JUMPDEST PUSH1 0x0 DUP1 DUP7 PUSH20 0xFFFFFFFFFFFFFFFFFFFFFFFFFFFFFFFFFFFFFFFF AND DUP6 DUP8 PUSH1 0x40 MLOAD PUSH2 0xC16 SWAP2 SWAP1 PUSH2 0x13DC JUMP JUMPDEST PUSH1 0x0 PUSH1 0x40 MLOAD DUP1 DUP4 SUB DUP2 DUP6 DUP8 GAS CALL SWAP3 POP POP POP RETURNDATASIZE DUP1 PUSH1 0x0 DUP2 EQ PUSH2 0xC53 JUMPI PUSH1 0x40 MLOAD SWAP2 POP PUSH1 0x1F NOT PUSH1 0x3F RETURNDATASIZE ADD AND DUP3 ADD PUSH1 0x40 MSTORE RETURNDATASIZE DUP3 MSTORE RETURNDATASIZE PUSH1 0x0 PUSH1 0x20 DUP5 ADD RETURNDATACOPY PUSH2 0xC58 JUMP JUMPDEST PUSH1 0x60 SWAP2 POP JUMPDEST POP SWAP2 POP SWAP2 POP PUSH2 0xC68 DUP3 DUP3 DUP7 PUSH2 0xF0F JUMP JUMPDEST SWAP8 SWAP7 POP POP POP POP POP POP POP JUMP JUMPDEST PUSH1 0x0 DUP1 DUP3 MLOAD PUSH1 0x41 SUB PUSH2 0xCA9 JUMPI PUSH1 0x20 DUP4 ADD MLOAD PUSH1 0x40 DUP5 ADD MLOAD PUSH1 0x60 DUP6 ADD MLOAD PUSH1 0x0 BYTE PUSH2 0xC9D DUP8 DUP3 DUP6 DUP6 PUSH2 0xF62 JUMP JUMPDEST SWAP5 POP SWAP5 POP POP POP POP PUSH2 0xCB1 JUMP JUMPDEST POP PUSH1 0x0 SWAP1 POP PUSH1 0x2 JUMPDEST SWAP3 POP SWAP3 SWAP1 POP JUMP JUMPDEST PUSH1 0x0 DUP2 PUSH1 0x4 DUP2 GT ISZERO PUSH2 0xCCC JUMPI PUSH2 0xCCC PUSH2 0x13F8 JUMP JUMPDEST SUB PUSH2 0xCD4 JUMPI POP JUMP JUMPDEST PUSH1 0x1 DUP2 PUSH1 0x4 DUP2 GT ISZERO PUSH2 0xCE8 JUMPI PUSH2 0xCE8 PUSH2 0x13F8 JUMP JUMPDEST SUB PUSH2 0xD4F JUMPI PUSH1 0x40 MLOAD PUSH32 0x8C379A000000000000000000000000000000000000000000000000000000000 DUP2 MSTORE PUSH1 0x20 PUSH1 0x4 DUP3 ADD MSTORE PUSH1 0x18 PUSH1 0x24 DUP3 ADD MSTORE PUSH32 0x45434453413A20696E76616C6964207369676E61747572650000000000000000 PUSH1 0x44 DUP3 ADD MSTORE PUSH1 0x64 ADD PUSH2 0x3B4 JUMP JUMPDEST PUSH1 0x2 DUP2 PUSH1 0x4 DUP2 GT ISZERO PUSH2 0xD63 JUMPI PUSH2 0xD63 PUSH2 0x13F8 JUMP JUMPDEST SUB PUSH2 0xDCA JUMPI PUSH1 0x40 MLOAD PUSH32 0x8C379A000000000000000000000000000000000000000000000000000000000 DUP2 MSTORE PUSH1 0x20 PUSH1 0x4 DUP3 ADD MSTORE PUSH1 0x1F PUSH1 0x24 DUP3 ADD MSTORE PUSH32 0x45434453413A20696E76616C6964207369676E6174757265206C656E67746800 PUSH1 0x44 DUP3 ADD MSTORE PUSH1 0x64 ADD PUSH2 0x3B4 JUMP JUMPDEST PUSH1 0x3 DUP2 PUSH1 0x4 DUP2 GT ISZERO PUSH2 0xDDE JUMPI PUSH2 0xDDE PUSH2 0x13F8 JUMP JUMPDEST SUB PUSH2 0xE6B JUMPI PUSH1 0x40 MLOAD PUSH32 0x8C379A000000000000000000000000000000000000000000000000000000000 DUP2 MSTORE PUSH1 0x20 PUSH1 0x4 DUP3 ADD MSTORE PUSH1 0x22 PUSH1 0x24 DUP3 ADD MSTORE PUSH32 0x45434453413A20696E76616C6964207369676E6174757265202773272076616C PUSH1 0x44 DUP3 ADD MSTORE PUSH32 0x7565000000000000000000000000000000000000000000000000000000000000 PUSH1 0x64 DUP3 ADD MSTORE PUSH1 0x84 ADD PUSH2 0x3B4 JUMP JUMPDEST PUSH1 0x4 DUP2 PUSH1 0x4 DUP2 GT ISZERO PUSH2 0xE7F JUMPI PUSH2 0xE7F PUSH2 0x13F8 JUMP JUMPDEST SUB PUSH2 0xF0C JUMPI PUSH1 0x40 MLOAD PUSH32 0x8C379A000000000000000000000000000000000000000000000000000000000 DUP2 MSTORE PUSH1 0x20 PUSH1 0x4 DUP3 ADD MSTORE PUSH1 0x22 PUSH1 0x24 DUP3 ADD MSTORE PUSH32 0x45434453413A20696E76616C6964207369676E6174757265202776272076616C PUSH1 0x44 DUP3 ADD MSTORE PUSH32 0x7565000000000000000000000000000000000000000000000000000000000000 PUSH1 0x64 DUP3 ADD MSTORE PUSH1 0x84 ADD PUSH2 0x3B4 JUMP JUMPDEST POP JUMP JUMPDEST PUSH1 0x60 DUP4 ISZERO PUSH2 0xF1E JUMPI POP DUP2 PUSH2 0x871 JUMP JUMPDEST DUP3 MLOAD ISZERO PUSH2 0xF2E JUMPI DUP3 MLOAD DUP1 DUP5 PUSH1 0x20 ADD REVERT JUMPDEST DUP2 PUSH1 0x40 MLOAD PUSH32 0x8C379A000000000000000000000000000000000000000000000000000000000 DUP2 MSTORE PUSH1 0x4 ADD PUSH2 0x3B4 SWAP2 SWAP1 PUSH2 0x1427 JUMP JUMPDEST PUSH1 0x0 DUP1 PUSH32 0x7FFFFFFFFFFFFFFFFFFFFFFFFFFFFFFF5D576E7357A4501DDFE92F46681B20A0 DUP4 GT ISZERO PUSH2 0xF99 JUMPI POP PUSH1 0x0 SWAP1 POP PUSH1 0x3 PUSH2 0x1071 JUMP JUMPDEST DUP5 PUSH1 0xFF AND PUSH1 0x1B EQ ISZERO DUP1 ISZERO PUSH2 0xFB1 JUMPI POP DUP5 PUSH1 0xFF AND PUSH1 0x1C EQ ISZERO JUMPDEST ISZERO PUSH2 0xFC2 JUMPI POP PUSH1 0x0 SWAP1 POP PUSH1 0x4 PUSH2 0x1071 JUMP JUMPDEST PUSH1 0x40 DUP1 MLOAD PUSH1 0x0 DUP1 DUP3 MSTORE PUSH1 0x20 DUP3 ADD DUP1 DUP5 MSTORE DUP10 SWAP1 MSTORE PUSH1 0xFF DUP9 AND SWAP3 DUP3 ADD SWAP3 SWAP1 SWAP3 MSTORE PUSH1 0x60 DUP2 ADD DUP7 SWAP1 MSTORE PUSH1 0x80 DUP2 ADD DUP6 SWAP1 MSTORE PUSH1 0x1 SWAP1 PUSH1 0xA0 ADD PUSH1 0x20 PUSH1 0x40 MLOAD PUSH1 0x20 DUP2 SUB SWAP1 DUP1 DUP5 SUB SWAP1 DUP6 GAS STATICCALL ISZERO DUP1 ISZERO PUSH2 0x1016 JUMPI RETURNDATASIZE PUSH1 0x0 DUP1 RETURNDATACOPY RETURNDATASIZE PUSH1 0x0 REVERT JUMPDEST POP POP PUSH1 0x40 MLOAD PUSH32 0xFFFFFFFFFFFFFFFFFFFFFFFFFFFFFFFFFFFFFFFFFFFFFFFFFFFFFFFFFFFFFFE0 ADD MLOAD SWAP2 POP POP PUSH20 0xFFFFFFFFFFFFFFFFFFFFFFFFFFFFFFFFFFFFFFFF DUP2 AND PUSH2 0x106A JUMPI PUSH1 0x0 PUSH1 0x1 SWAP3 POP SWAP3 POP POP PUSH2 0x1071 JUMP JUMPDEST SWAP2 POP PUSH1 0x0 SWAP1 POP JUMPDEST SWAP5 POP SWAP5 SWAP3 POP POP POP JUMP JUMPDEST PUSH1 0x0 DUP1 DUP4 PUSH1 0x1F DUP5 ADD SLT PUSH2 0x108C JUMPI PUSH1 0x0 DUP1 REVERT JUMPDEST POP DUP2 CALLDATALOAD PUSH8 0xFFFFFFFFFFFFFFFF DUP2 GT ISZERO PUSH2 0x10A4 JUMPI PUSH1 0x0 DUP1 REVERT JUMPDEST PUSH1 0x20 DUP4 ADD SWAP2 POP DUP4 PUSH1 0x20 DUP3 DUP6 ADD ADD GT ISZERO PUSH2 0xCB1 JUMPI PUSH1 0x0 DUP1 REVERT JUMPDEST DUP1 CALLDATALOAD DUP1 ISZERO ISZERO DUP2 EQ PUSH2 0x10CC JUMPI PUSH1 0x0 DUP1 REVERT JUMPDEST SWAP2 SWAP1 POP JUMP JUMPDEST DUP1 CALLDATALOAD PUSH20 0xFFFFFFFFFFFFFFFFFFFFFFFFFFFFFFFFFFFFFFFF DUP2 AND DUP2 EQ PUSH2 0x10CC JUMPI PUSH1 0x0 DUP1 REVERT JUMPDEST PUSH1 0x0 DUP1 PUSH1 0x0 DUP1 PUSH1 0x0 DUP1 PUSH1 0x80 DUP8 DUP10 SUB SLT ISZERO PUSH2 0x110E JUMPI PUSH1 0x0 DUP1 REVERT JUMPDEST DUP7 CALLDATALOAD PUSH8 0xFFFFFFFFFFFFFFFF DUP1 DUP3 GT ISZERO PUSH2 0x1126 JUMPI PUSH1 0x0 DUP1 REVERT JUMPDEST PUSH2 0x1132 DUP11 DUP4 DUP12 ADD PUSH2 0x107A JUMP JUMPDEST SWAP1 SWAP9 POP SWAP7 POP DUP7 SWAP2 POP PUSH2 0x1146 PUSH1 0x20 DUP11 ADD PUSH2 0x10BC JUMP JUMPDEST SWAP6 POP PUSH2 0x1154 PUSH1 0x40 DUP11 ADD PUSH2 0x10D1 JUMP JUMPDEST SWAP5 POP PUSH1 0x60 DUP10 ADD CALLDATALOAD SWAP2 POP DUP1 DUP3 GT ISZERO PUSH2 0x116A JUMPI PUSH1 0x0 DUP1 REVERT JUMPDEST POP PUSH2 0x1177 DUP10 DUP3 DUP11 ADD PUSH2 0x107A JUMP JUMPDEST SWAP8 SWAP11 SWAP7 SWAP10 POP SWAP5 SWAP8 POP SWAP3 SWAP6 SWAP4 SWAP5 SWAP3 POP POP POP JUMP JUMPDEST PUSH1 0x0 PUSH1 0x20 DUP3 DUP5 SUB SLT ISZERO PUSH2 0x119B JUMPI PUSH1 0x0 DUP1 REVERT JUMPDEST PUSH2 0x871 DUP3 PUSH2 0x10D1 JUMP JUMPDEST PUSH1 0x0 DUP1 PUSH1 0x0 PUSH1 0x40 DUP5 DUP7 SUB SLT ISZERO PUSH2 0x11B9 JUMPI PUSH1 0x0 DUP1 REVERT JUMPDEST PUSH2 0x11C2 DUP5 PUSH2 0x10D1 JUMP JUMPDEST SWAP3 POP PUSH1 0x20 DUP5 ADD CALLDATALOAD PUSH8 0xFFFFFFFFFFFFFFFF DUP2 GT ISZERO PUSH2 0x11DE JUMPI PUSH1 0x0 DUP1 REVERT JUMPDEST PUSH2 0x11EA DUP7 DUP3 DUP8 ADD PUSH2 0x107A JUMP JUMPDEST SWAP5 SWAP8 SWAP1 SWAP7 POP SWAP4 SWAP5 POP POP POP POP JUMP JUMPDEST PUSH1 0x0 DUP1 PUSH1 0x40 DUP4 DUP6 SUB SLT ISZERO PUSH2 0x120A JUMPI PUSH1 0x0 DUP1 REVERT JUMPDEST PUSH2 0x1213 DUP4 PUSH2 0x10D1 JUMP JUMPDEST SWAP2 POP PUSH2 0x1221 PUSH1 0x20 DUP5 ADD PUSH2 0x10D1 JUMP JUMPDEST SWAP1 POP SWAP3 POP SWAP3 SWAP1 POP JUMP JUMPDEST PUSH1 0x0 DUP1 PUSH1 0x0 DUP1 PUSH1 0x0 PUSH1 0x80 DUP7 DUP9 SUB SLT ISZERO PUSH2 0x1242 JUMPI PUSH1 0x0 DUP1 REVERT JUMPDEST PUSH2 0x124B DUP7 PUSH2 0x10D1 JUMP JUMPDEST SWAP5 POP PUSH2 0x1259 PUSH1 0x20 DUP8 ADD PUSH2 0x10BC JUMP JUMPDEST SWAP4 POP PUSH1 0x40 DUP7 ADD CALLDATALOAD PUSH8 0xFFFFFFFFFFFFFFFF DUP2 GT ISZERO PUSH2 0x1275 JUMPI PUSH1 0x0 DUP1 REVERT JUMPDEST PUSH2 0x1281 DUP9 DUP3 DUP10 ADD PUSH2 0x107A JUMP JUMPDEST SWAP1 SWAP5 POP SWAP3 POP PUSH2 0x1294 SWAP1 POP PUSH1 0x60 DUP8 ADD PUSH2 0x10BC JUMP JUMPDEST SWAP1 POP SWAP3 SWAP6 POP SWAP3 SWAP6 SWAP1 SWAP4 POP JUMP JUMPDEST DUP3 DUP5 DUP3 CALLDATACOPY PUSH1 0x60 SWAP2 SWAP1 SWAP2 SHL PUSH32 0xFFFFFFFFFFFFFFFFFFFFFFFFFFFFFFFFFFFFFFFF000000000000000000000000 AND SWAP2 ADD SWAP1 DUP2 MSTORE PUSH1 0x14 ADD SWAP2 SWAP1 POP JUMP JUMPDEST PUSH1 0x0 JUMPDEST DUP4 DUP2 LT ISZERO PUSH2 0x12F4 JUMPI DUP2 DUP2 ADD MLOAD DUP4 DUP3 ADD MSTORE PUSH1 0x20 ADD PUSH2 0x12DC JUMP JUMPDEST POP POP PUSH1 0x0 SWAP2 ADD MSTORE JUMP JUMPDEST PUSH1 0x0 DUP2 MLOAD DUP1 DUP5 MSTORE PUSH2 0x1315 DUP2 PUSH1 0x20 DUP7 ADD PUSH1 0x20 DUP7 ADD PUSH2 0x12D9 JUMP JUMPDEST PUSH1 0x1F ADD PUSH32 0xFFFFFFFFFFFFFFFFFFFFFFFFFFFFFFFFFFFFFFFFFFFFFFFFFFFFFFFFFFFFFFE0 AND SWAP3 SWAP1 SWAP3 ADD PUSH1 0x20 ADD SWAP3 SWAP2 POP POP JUMP JUMPDEST DUP3 DUP2 MSTORE PUSH1 0x40 PUSH1 0x20 DUP3 ADD MSTORE PUSH1 0x0 PUSH2 0x86E PUSH1 0x40 DUP4 ADD DUP5 PUSH2 0x12FD JUMP JUMPDEST PUSH1 0x0 PUSH1 0x20 DUP3 DUP5 SUB SLT ISZERO PUSH2 0x1372 JUMPI PUSH1 0x0 DUP1 REVERT JUMPDEST DUP2 MLOAD PUSH32 0xFFFFFFFF00000000000000000000000000000000000000000000000000000000 DUP2 AND DUP2 EQ PUSH2 0x871 JUMPI PUSH1 0x0 DUP1 REVERT JUMPDEST DUP1 DUP3 ADD DUP1 DUP3 GT ISZERO PUSH2 0x480 JUMPI PUSH32 0x4E487B7100000000000000000000000000000000000000000000000000000000 PUSH1 0x0 MSTORE PUSH1 0x11 PUSH1 0x4 MSTORE PUSH1 0x24 PUSH1 0x0 REVERT JUMPDEST PUSH1 0x0 DUP3 MLOAD PUSH2 0x13EE DUP2 DUP5 PUSH1 0x20 DUP8 ADD PUSH2 0x12D9 JUMP JUMPDEST SWAP2 SWAP1 SWAP2 ADD SWAP3 SWAP2 POP POP JUMP JUMPDEST PUSH32 0x4E487B7100000000000000000000000000000000000000000000000000000000 PUSH1 0x0 MSTORE PUSH1 0x21 PUSH1 0x4 MSTORE PUSH1 0x24 PUSH1 0x0 REVERT JUMPDEST PUSH1 0x20 DUP2 MSTORE PUSH1 0x0 PUSH2 0x871 PUSH1 0x20 DUP4 ADD DUP5 PUSH2 0x12FD JUMP INVALID COINBASE PUSH5 0x6472657373 GASPRICE KECCAK256 PUSH13 0x6F772D6C6576656C2063616C6C KECCAK256 PUSH24 0x6974682076616C7565206661696C6564A264697066735822 SLT KECCAK256 LOG3 0x4D SHR SELFBALANCE 0xB4 0xDE PUSH26 0xFCC7581589F24D70BEB932E094B702F5C27EE04FCA4A9B2A2964 PUSH20 0x6F6C634300081000330000000000000000000000 "
    },
    "gasEstimates": {
      "creation": {
        "codeDepositCost": "1054600",
        "executionCost": "infinite",
        "totalCost": "infinite"
      },
      "external": {
        "DOMAIN_SEPARATOR()": "infinite",
        "approveAndForward(bytes,bool,address,bytes)": "infinite",
        "approveForwarder(address,bool,bytes,bool)": "infinite",
        "checkApprovalAndForward(bytes,bool,address,bytes)": "infinite",
        "forward(address,bytes)": "infinite",
        "getNonce(address,address)": "infinite",
        "isApprovedForwarder(address,address)": "infinite",
        "isTrustedForwarder(address)": "394"
      },
      "internal": {
        "_DOMAIN_SEPARATOR()": "infinite",
        "_approveForwarder(address,address,bool,bytes memory,bool)": "infinite",
        "_calculateDomainSeparator(uint256)": "infinite",
        "_encodeMessage(address,address,bool,uint256)": "infinite",
        "_requireValidSignature(address,address,bool,uint256,bytes memory,bool)": "infinite"
      }
    },
    "methodIdentifiers": {
      "DOMAIN_SEPARATOR()": "3644e515",
      "approveAndForward(bytes,bool,address,bytes)": "9438f7f3",
      "approveForwarder(address,bool,bytes,bool)": "d9e07567",
      "checkApprovalAndForward(bytes,bool,address,bytes)": "3b7136e7",
      "forward(address,bytes)": "6fadcf72",
      "getNonce(address,address)": "d828435d",
      "isApprovedForwarder(address,address)": "8929a8ca",
      "isTrustedForwarder(address)": "572b6c05"
    }
  },
  "storageLayout": {
    "storage": [
      {
        "astId": 1236,
        "contract": "solc_0.8/ForwarderRegistry.sol:ForwarderRegistry",
        "label": "_forwarders",
        "offset": 0,
        "slot": "0",
        "type": "t_mapping(t_address,t_mapping(t_address,t_struct(Forwarder)1229_storage))"
      }
    ],
    "types": {
      "t_address": {
        "encoding": "inplace",
        "label": "address",
        "numberOfBytes": "20"
      },
      "t_bool": {
        "encoding": "inplace",
        "label": "bool",
        "numberOfBytes": "1"
      },
      "t_mapping(t_address,t_mapping(t_address,t_struct(Forwarder)1229_storage))": {
        "encoding": "mapping",
        "key": "t_address",
        "label": "mapping(address => mapping(address => struct ForwarderRegistry.Forwarder))",
        "numberOfBytes": "32",
        "value": "t_mapping(t_address,t_struct(Forwarder)1229_storage)"
      },
      "t_mapping(t_address,t_struct(Forwarder)1229_storage)": {
        "encoding": "mapping",
        "key": "t_address",
        "label": "mapping(address => struct ForwarderRegistry.Forwarder)",
        "numberOfBytes": "32",
        "value": "t_struct(Forwarder)1229_storage"
      },
      "t_struct(Forwarder)1229_storage": {
        "encoding": "inplace",
        "label": "struct ForwarderRegistry.Forwarder",
        "members": [
          {
            "astId": 1226,
            "contract": "solc_0.8/ForwarderRegistry.sol:ForwarderRegistry",
            "label": "nonce",
            "offset": 0,
            "slot": "0",
            "type": "t_uint248"
          },
          {
            "astId": 1228,
            "contract": "solc_0.8/ForwarderRegistry.sol:ForwarderRegistry",
            "label": "approved",
            "offset": 31,
            "slot": "0",
            "type": "t_bool"
          }
        ],
        "numberOfBytes": "32"
      },
      "t_uint248": {
        "encoding": "inplace",
        "label": "uint248",
        "numberOfBytes": "31"
      }
    }
  },
  "userdoc": {
    "events": {
      "ForwarderApproved(address,address,bool,uint256)": {
        "notice": "emitted for each Forwarder Approval or Disaproval."
      }
    },
    "kind": "user",
    "methods": {
      "approveAndForward(bytes,bool,address,bytes)": {
        "notice": "approve and forward the meta transaction in one call."
      },
      "approveForwarder(address,bool,bytes,bool)": {
        "notice": "approve a forwarder using EIP-2771 (msg.sender is a forwarder and signer is encoded in the appended data)."
      },
      "checkApprovalAndForward(bytes,bool,address,bytes)": {
        "notice": "check approval (but do not record it) and forward the meta transaction in one call."
      },
      "forward(address,bytes)": {
        "notice": "Forward the meta tx (assuming caller has been approved by the signer as forwarder)."
      },
      "getNonce(address,address)": {
        "notice": "return the current nonce for the signer/forwarder pair."
      },
      "isApprovedForwarder(address,address)": {
        "notice": "return whether a forwarder is approved by a particular signer."
      },
      "isTrustedForwarder(address)": {
        "notice": "The ForwarderRegistry supports every EIP-2771 compliant forwarder."
      }
    },
    "notice": "Universal Meta Transaction Forwarder Registry. Users can record specific forwarder that will be allowed to forward meta transactions on their behalf.",
    "version": 1
  }
}